:100000000C9436000C9453000C9453000C94530041
:100010000C9453000C9453000C9453000C94530014
:100020000C9453000C9453000C9453000C94530004
:100030000C9453000C9453000C9453000C945300F4
:100040000C9453000C9453000C9453000C945300E4
:100050000C94530046025502640273028202BD02F0
:10006000BD02BD02BD029102A002AF0211241FBE5B
:10007000CFE5D8E0DEBFCDBF12E0A0E6B0E0E4ED12
:10008000F0E102C005900D92A239B107D9F723E043
:10009000A2E9B2E001C01D92AA31B207E1F70E94C5
:1000A000E9030C9468080C94000085BB8FE99FE07D
:1000B0000197F1F700C0000092989198909A8FE90B
:1000C0009FE00197F1F700C000009098089585BB6C
:1000D0008FE99FE00197F1F700C00000929A919894
:1000E000909A8FE99FE00197F1F700C00000909887
:1000F0000895029719F4949A939808959498939A6E
:100100000895CF93DF9300D01F92CDB7DEB788EB71
:10011000898380E48A838FE38B8382E090E00E946E
:1001200079001092D70280E0E1E0F0E0EC0FFD1FD3
:10013000E80FF11D80810E9455008091D7028F5FEA
:100140008093D702833080F381E090E00E947900B1
:100150001092D70280E0E1E0F0E0EC0FFD1FE80F25
:10016000F11D80810E9455008091D7028F5F80939E
:10017000D702833080F30F900F900F90DF91CF91D3
:1001800008958FE99FE00197F1F700C0000095986E
:100190008FE19EE40197F1F700C00000959A8FE986
:1001A0009FE00197F1F700C000000E9481008FECF2
:1001B00097E00197F1F700C0000082E090E00E9414
:1001C000790088EB0E94550080E40E94550010924F
:1001D000D70280E00E9467008091D7028F5F8093F2
:1001E000D7028034B0F389EB0E94550080E40E946E
:1001F00055001092D70280E00E9467008091D702DC
:100200008F5F8093D7028231B0F31092D702E0E083
:10021000F0E0E95CFD4F80810E946700E091D70229
:10022000EF5FE093D702EB3198F31092D70280E0B2
:100230000E9467008091D7028F5F8093D70283313D
:10024000B0F38AEB0E94550080E40E9455001092A2
:10025000D70280E00E9467008091D7028F5F809371
:10026000D7028830B0F31092D702E0E0F0E0E95F07
:10027000FD4F80810E946700E091D702EF5FE0931D
:10028000D702E03398F31092D70280E00E94670013
:100290008091D7028F5F8093D7028830B0F38BEBC9
:1002A0000E94550080E40E9455001092D70280E021
:1002B0000E9467008091D7028F5F8093D7028034BD
:1002C000B0F38CEB0E94550080E40E945500109220
:1002D000D70280E00E9467008091D7028F5F8093F1
:1002E000D7028034B0F38EEB0E94550080E40E9468
:1002F00055001092D70280E00E9467008091D702DB
:100300008F5F8093D7028034B0F38FEB0E9455004B
:1003100080E40E9455001092D70280E00E9467009E
:100320008091D7028F5F8093D7028034B0F3089515
:1003300082E090E00E9479008DEB0E94550080E4FD
:100340000E9455001092D70280E00E9467008091C1
:10035000D7028F5F8093D7028430B0F31092D70218
:10036000E0E0F0E0E053FE4F80810E946700E09102
:10037000D702EF5FE093D702E73398F31092D702EA
:1003800080E00E9467008091D7028F5F8093D70240
:100390008530B0F3089582E090E00E9479008DEB03
:1003A0000E94550080E40E9455001092D70280E020
:1003B0000E9467008091D7028F5F8093D7028830B8
:1003C000B0F31092D702E0E0F0E0E056FE4F8081FB
:1003D0000E946700E091D702EF5FE093D702E0331D
:1003E00098F31092D70280E00E9467008091D702B4
:1003F0008F5F8093D7028830B0F30895EF92FF9219
:100400000F931F93CF93DF93CDB7DEB728970FB627
:10041000F894DEBF0FBECDBFE82E062F142FF22EAC
:1004200081E090E00E9479008E2D886B0E9455003B
:10043000802F880F880F880F80640E945500F1106C
:100440000CC0FE013196CE0109961192E817F9070A
:10045000E1F788E08093D7020DC08FEF898388870A
:1004600081E88A838B838C838D838E838F8387E05F
:100470008093D702412F50E0FA013197EC30F1051B
:1004800008F07BC0E65DFF4F0C944E08AAE7B2E08F
:10049000FE0131969E01275F3F4F8D919081892B00
:1004A00081932E173F07C9F768C0A2E7B2E0FE01AB
:1004B00031969E01275F3F4F8D919081892B8193CB
:1004C0002E173F07C9F759C0AAE6B2E0FE013196E0
:1004D0009E01275F3F4F8D919081892B8193E21779
:1004E000F307C9F74AC0A2E6B2E0FE0131969E01C9
:1004F000275F3F4F8D919081892B8193E217F307FE
:10050000C9F73BC0AAE5B2E0FE0131969E01275F24
:100510003F4F8D919081892B8193E217F307C9F7A3
:100520002CC0AAE8B2E0FE0131969E01275F3F4F42
:100530008D919081892B8193E217F307C9F71DC034
:10054000A2E8B2E0FE0131969E01275F3F4F8D91F8
:100550009081892B8193E217F307C9F70EC0A2E5BA
:10056000B2E0FE0131969E01275F3F4F8D91908151
:10057000892B8193E217F307C9F71092D70280E025
:10058000E1E0F0E0EC0FFD1FE80FF11D80810E941B
:1005900067008091D7028F5F8093D702883080F305
:1005A00028960FB6F894DEBF0FBECDBFDF91CF9176
:1005B0001F910F91FF90EF900895CF93DF931092CA
:1005C00096021092D8028CE08093D90282E090E0EB
:1005D0000E94790085E08093D702886B0E945500C5
:1005E00080E40E945500C0E4D0E080E00E946700F3
:1005F0002197D9F78091D7028F5F8093D7028630F9
:1006000060F3D0E00CC020E04CE06C2F8D2F0E94F6
:10061000FE01CF5FC830B9F7DF5FD83011F0C0E01E
:10062000F2CFDF91CF9108951F93CF93DF93182FCF
:10063000D62FC42F211103C00E94FE0115C020E057
:100640004091D9026091D802809196020E94FE01E9
:1006500021E04C2F6D2F812F0E94FE0110939602F6
:10066000D093D802C093D902DF91CF911F91089502
:10067000109295021092940210929202EAEDF2E02A
:100680004AE153E02CE008C02193E817F907E1F7AD
:10069000FC014817590719F0CF010896F5CF809152
:1006A00093028230C9F028F4882321F18130D9F0F7
:1006B00079C0833051F0843009F074C0E0E6F0E096
:1006C00047E952E067ED72E068C0E0EAF0E047E930
:1006D00052E067ED72E051C0E0EEF0E047E952E031
:1006E00067ED72E03AC0E0E2F1E047E952E067ED21
:1006F00072E023C0E0E6F1E047E952E067ED72E026
:100700000CC081918D93E217F307D9F7485F5F4FD3
:10071000F9016417750709F445C09F01285F3F4F31
:10072000DA01EFCF81918D932E173F07D9F7485FFC
:100730005F4FF90164177507A9F19F01285F3F4FCB
:10074000DA01F0CF81918D932E173F07D9F7485FDB
:100750005F4FF9016417750729F19F01285F3F4F2B
:10076000DA01F0CF81918D93E217F307D9F7485F53
:100770005F4FF90146175707A9F09F01285F3F4FC8
:10078000DA01F0CF81918D93E217F307D9F7485F33
:100790005F4FF9014617570729F09F01285F3F4F28
:1007A000DA01F0CF0E94DD028091950260919402FF
:1007B000E82FF0E0EE0FFF1FEE0FFF1FEE0FFF1F01
:1007C000E652FD4FE60FF11D21E040810E94140327
:1007D0000895CF93DF9300D01F92CDB7DEB78FEF90
:1007E00081BB84BB17BA0E94C100109293020E9481
:1007F00038030F2EFAE02F2EF02D2A820F2EFCE068
:100800004F2EF02D0F2EFBE06F2EF02D2982342C71
:10081000562C0F2EF5E0AF2EB12CF02DB39B25C03A
:1008200080919402811104C027E02093940203C0B8
:100830008150809394028091950260919402E82FF8
:10084000F0E0EE0FFF1FEE0FFF1FEE0FFF1FE6524F
:10085000FD4FE60FF11D21E040810E9414038FE35C
:100860009CE90197F1F700C00000B19B29C060919D
:10087000940270E06F5F7F4F67707078772334F475
:1008800061507109686F7F6F6F5F7F4F6093940253
:1008900080919502E82FF0E0EE0FFF1FEE0FFF1F93
:1008A000EE0FFF1FE652FD4FE60FF11D21E04081E4
:1008B0000E941403EFE3FCE93197F1F700C0000058
:1008C000B29B29C08091950290E001968770907844
:1008D000992324F40197886F9F6F01968093950266
:1008E00060919402FC01FF27EE0FFF1FEE0FFF1F28
:1008F000EE0FFF1FE652FD4FE60FF11D21E0408194
:100900000E941403FFEF21EE84E0F150204080406C
:10091000E1F700C00000B09B25C0809195028111D5
:1009200004C097E09093950203C081508093950294
:100930008091950260919402E82FF0E0EE0FFF1F86
:10094000EE0FFF1FEE0FFF1FE652FD4FE60FF11DEA
:1009500021E040810E941403EFE3FCE93197F1F7B5
:1009600000C00000B49BA6C280919502282F30E001
:1009700060919402A62FB0E0F901EE0FFF1FEE0F79
:10098000FF1FEE0FFF1FE652FD4FEA0FFB1F908186
:100990009C3009F089C2F901EE0FFF1FEE0FFF1F17
:1009A000EE0FFF1FE956FD4FEA0FFB1F40819FEF3F
:1009B000940F9830A0F4220F331F220F331F220F01
:1009C000331F26523D4FA20FB31F4C9321E00E94CC
:1009D0001403809192028F5F8093920265C241114D
:1009E00011C2220F331F220F331F220F331F265233
:1009F0003D4FA20FB31F1C92909192029F5F909364
:100A0000920221E00E94140380919502882371F1E3
:100A1000282F30E02150310960919402A62FB0E0D8
:100A2000F901EE0FFF1FEE0FFF1FEE0FFF1FE9563C
:100A3000FD4FEA0FFB1F40814A30C1F0F901EE0F74
:100A4000FF1FEE0FFF1FEE0FFF1FE652FD4FEA0FD5
:100A5000FB1F90819C3051F4408320E081500E9424
:100A60001403809192028F5F80939202909194027E
:100A7000992309F4A7C280919502682F70E0292F6D
:100A800030E021503109FB01EE0FFF1FEE0FFF1F79
:100A9000EE0FFF1FE956FD4FE20FF31F40814A3072
:100AA00021F1FB01EE0FFF1FEE0FFF1FEE0FFF1FE7
:100AB000E652FD4FE20FF31F50815C30B1F4660F38
:100AC000771F660F771F660F771F66527D4FFB01FA
:100AD000E20FF31F40836FEF690F20E00E941403C1
:100AE000809192028F5F809392028091950287306D
:100AF00070F5282F30E02F5F3F4F60919402A62FB2
:100B0000B0E0F901EE0FFF1FEE0FFF1FEE0FFF1F0A
:100B1000E956FD4FEA0FFB1F40814A30C1F0F90151
:100B2000EE0FFF1FEE0FFF1FEE0FFF1FE652FD4FF0
:100B3000EA0FFB1F90819C3051F4408320E08F5FCF
:100B40000E941403809192028F5F80939202909191
:100B500094029730D0F580919502682F70E0292F8C
:100B600030E02F5F3F4FFB01EE0FFF1FEE0FFF1F27
:100B7000EE0FFF1FE956FD4FE20FF31F40814A3091
:100B800021F1FB01EE0FFF1FEE0FFF1FEE0FFF1F06
:100B9000E652FD4FE20FF31F50815C30B1F4660F57
:100BA000771F660F771F660F771F66527D4FFB0119
:100BB000E20FF31F408361E0690F20E00E941403FD
:100BC000809192028F5F8093920280919502882398
:100BD00009F447C090919402992309F43CC2282F4C
:100BE00030E021503109692F70E061507109F9013D
:100BF000EE0FFF1FEE0FFF1FEE0FFF1FE956FD4F19
:100C0000E60FF71F40814A3009F4F9C1F901EE0FF0
:100C1000FF1FEE0FFF1FEE0FFF1FE652FD4FE60F07
:100C2000F71F50815C3009F0EAC1220F331F220FF9
:100C3000331F220F331F26523D4FF901E60FF71FD6
:100C400040836FEF690F20E081500E941403809170
:100C500092028F5F8093920280919502873008F014
:100C600040C090919402992309F4CCC1282F30E020
:100C70002F5F3F4F692F70E061507109F901EE0F4E
:100C8000FF1FEE0FFF1FEE0FFF1FE956FD4FE60F90
:100C9000F71F40814A3029F1F901EE0FFF1FEE0FD7
:100CA000FF1FEE0FFF1FE652FD4FE60FF71F5081AB
:100CB0005C30B9F4220F331F220F331F220F331F72
:100CC00026523D4FF901E60FF71F40836FEF690F82
:100CD00020E08F5F0E941403809192028F5F8093C7
:100CE000920280919502882309F449C09091940260
:100CF000973008F0D9C001C090E0282F30E0215093
:100D00003109692F70E06F5F7F4FF901EE0FFF1F10
:100D1000EE0FFF1FEE0FFF1FE956FD4FE60FF71F07
:100D200040814A3009F476C1F901EE0FFF1FEE0F42
:100D3000FF1FEE0FFF1FE652FD4FE60FF71F50811A
:100D40005C3009F067C1220F331F220F331F220FBF
:100D5000331F26523D4FF901E60FF71F408361E034
:100D6000690F20E081500E941403809192028F5FEE
:100D70008093920280919502873008F095C09091FF
:100D80009402973008F090C0282F30E02F5F3F4F3B
:100D9000692F70E06F5F7F4FF901EE0FFF1FEE0FBD
:100DA000FF1FEE0FFF1FE956FD4FE60FF71F4081B3
:100DB0004A3009F479C0F901EE0FFF1FEE0FFF1F53
:100DC000EE0FFF1FE652FD4FE60FF71F50815C301C
:100DD00009F06AC0220F331F220F331F220F331F67
:100DE00026523D4FF901E60FF71F408361E0690F7E
:100DF00020E08F5F0E941403809192028F5F8093A6
:100E0000920252C04A3009F04FC0220F331F220F06
:100E1000331F220F331F26523D4FA20FB31F2C92B8
:100E200021E04A810E9414030F2EF7E98F2EF2E091
:100E30009F2EF02D0F2EFAEDCF2EF2E0DF2EF02DAB
:100E4000712C21C0F70181917F018A3059F4F8019A
:100E500080818C3039F4208220E049816B81872D9C
:100E60000E941403FB81FF5FFB830F5F1F4FF8306D
:100E700049F7739428E0820E911C88E0C80ED11CBB
:100E800098E0791621F0860174011B82DBCF0E9465
:100E90009801EFEFF6E721E0E150F0402040E1F764
:100EA00000C000000E9438038FE39CE90197F1F72E
:100EB00000C00000B59B6DC080919502282F30E0E6
:100EC00060919402462F50E0F901EE0FFF1FEE0FE4
:100ED000FF1FEE0FFF1FE652FD4FE40FF51F90813D
:100EE0009C3041F5220F331F220F331F220F331F77
:100EF00026523D4FF901E40FF51F608221E0452D98
:100F00000E941403E0919502F0E080919402EE0FAC
:100F1000FF1FEE0FFF1FEE0FFF1FE956FD4FE80FFB
:100F2000F11D80818A3079F5809192028F5F8093E4
:100F3000920229C09B3039F5220F331F220F331F35
:100F4000220F331F26523D4FF901E40FF51F408257
:100F500021E0432D0E941403E0919502F0E080917E
:100F60009402EE0FFF1FEE0FFF1FEE0FFF1FE9565B
:100F7000FD4FE80FF11D80818A3029F480919202A3
:100F8000815080939202EFE3FCE93197F1F700C0C2
:100F9000000080919202803409F040CC0E94CB0185
:100FA0008091930290E00196B5010E943A088093E7
:100FB00093028FE59AEE0197F1F700C000000E94BE
:100FC00038032CCC80919502873068F1C4CD282F4E
:100FD00030E02F5F3F4F692F70E061507109F901D8
:100FE000EE0FFF1FEE0FFF1FEE0FFF1FE956FD4F25
:100FF000E60FF71F40814A3009F04ECE32C08730ED
:1010000098F5E5CF80919502811176CE30C0909110
:101010009402BACE80919502873008F045CFF7CF81
:101020009091940298CD282F30E02F5F3F4F609130
:101030009402A62FB0E0F901EE0FFF1FEE0FFF1F85
:10104000EE0FFF1FE956FD4FEA0FFB1F40814A30AC
:1010500009F065CDE5CF80919502873008F041CE4B
:10106000D1CF8091950242CE809195023FCE809162
:10107000950285CE97FB072E16F4009407D077FDD6
:1010800009D00E94540807FC05D03EF49095819544
:101090009F4F0895709561957F4F0895EE0FFF1F44
:1010A0000590F491E02D0994AA1BBB1B51E107C0E8
:1010B000AA1FBB1FA617B70710F0A61BB70B881FE8
:1010C000991F5A95A9F780959095BC01CD01089577
:0410D000F894FFCFC2
:1010D4000A010000010A01000102020202010100EA
:1010E40000010A0A010000000001020201000000E0
:1010F4000000000101010000000000010A020202D8
:101104000101000202030A0A0A0100010A02030A99
:101114000A020A010000020A010302020101030A91
:1011240000010A01010A0201010202010101010098
:10113400020A0100000001010A0202010100010A81
:101144000101010A01000101000001010100000088
:10115400010101010101010A010A01010A01010160
:1011640001010101010201010000000000010A0166
:101174000101010000010202010A03020201020A44
:1011840002030A0A020A02010A020202020101001F
:1011940001010000000000000A010000000000003E
:1011A40002030101010101000A040A02010A01000B
:1011B4000A040A0201010100010302020000010104
:1011C40002030A010000010A0A0A020100000101E7
:1011D40000000102030201000101010A0A0A0200DF
:1011E4000A010102040A02000101000001010100D8
:1011F40000000000000000000101010101010101E3
:101204000A01010A01020A030101010101020A0A99
:10121400001F2040201F0000007D4000003844448F
:10122400442800043E442400003844444438004424
:1012340078440408009CA0603C000000005F0000AB
:10124400003E4149497A002054545478007C0418E3
:10125400047800385454540800003E4141413E0093
:101264001C2040201C003854545408004478440482
:10127400080000005F000000264949493200003F91
:10128400403C403F00007F4949494100007F4949B3
:10129400494100007F0909090600007F4949494185
:1012A40000007F09091966007F0204027F00000024
:1012B400417F410000007F0204087F00007F49490C
:1012C4004941007E7E7E7E7E7E0000001E524A4A98
:1012D4003000001018147E10100000004452522CEC
:1012E400000000004462524C0000000048447E406C
:1012F4000000007E362200367E00005A244242243A
:021304005A008D
:00000001FF
